:100000000C9462000C948A000C948A000C948A0070
:100010000C948A000C948A000C948A000C948A0038
:100020000C948A000C948A000C948A000C948A0028
:100030000C948A000C948A000C948A000C948A0018
:100040000C9459050C948A000C94C9050C94A305D2
:100050000C948A000C948A000C948A000C948A00F8
:100060000C94FB050C948A0000000000240027007B
:100070002A0000000000250028002B0000000008D6
:10008000000201000003040700000000000000005F
:1000900000000000230026002900040404040404D6
:1000A0000404020202020202030303030303010227
:1000B00004081020408001020408102001020408F6
:1000C0001020250711241FBECFEFD8E0DEBFCDBF23
:1000D00011E0A0E0B1E0E4EAF7E102C005900D9282
:1000E000A439B107D9F722E0A4E9B1E001C01D921B
:1000F000A83CB207E1F710E0C2E6D0E004C02197C7
:10010000FE010E94C50BC136D107C9F70E947E07C8
:100110000C94D00B0C940000CF92DF92EF92FF92E0
:10012000CF93DF93B091BC02882311F0AB2F01C0B5
:10013000A0E08091BD0290E0880F991F80579F4FEB
:10014000C090C202D090C302E090C402F090C502F9
:1001500020E030E0FC01C591D491E881EB23A901B6
:1001600060E070E0EA130CC02F5F3F4F4C155D0557
:100170006E057F0578F33FEF2FEF8FEF9FEF03C002
:10018000322F252FCB01632F722FDF91CF91FF905C
:10019000EF90DF90CF900895CF93DF9390E0FC0134
:1001A000E255FF4F2491FC01E656FF4F84918823CE
:1001B00061F190E0880F991FFC01E859FF4FC5914C
:1001C000D491FC01EE58FF4FA591B491611109C083
:1001D0009FB7F8948881209582238883EC912E2301
:1001E0000BC0623061F49FB7F8948881322F30954C
:1001F00083238883EC912E2B2C939FBF06C08FB74F
:10020000F894E8812E2B28838FBFDF91CF9108953A
:100210003FB7F8948091040290910502A0910602E4
:10022000B091070226B5A89B05C02F3F19F0019693
:10023000A11DB11D3FBFBA2FA92F982F8827820F6C
:10024000911DA11DB11DBC01CD0142E0660F771FBC
:10025000881F991F4A95D1F708958F929F92AF9268
:10026000BF92CF92DF92EF92FF926B017C010E94CE
:1002700008014B015C01C114D104E104F104F1F067
:100280000E940801DC01CB0188199909AA09BB0960
:10029000883E9340A105B10570F321E0C21AD10850
:1002A000E108F10888EE880E83E0981EA11CB11CBD
:1002B000C114D104E104F10419F7DDCFFF90EF90F0
:1002C000DF90CF90BF90AF909F908F900895CF9286
:1002D000DF92EF92FF920F931F93CF93DF93CDB7EF
:1002E000DEB7C054D1400FB6F894DEBF0FBECDBF0D
:1002F0002FB7F8948091080290910902A0910A0208
:10030000B0910B022FBF4091BE025091BF0260918D
:10031000C0027091C1028C019D01041B150B260BBC
:10032000370BB901A801403D57406105710518F42C
:100330008091C6020DC18093BE029093BF02A0932C
:10034000C002B093C1021092B9021092B80210928A
:10035000B7021092B6021092B50262E08091BA0222
:100360000E94CC0061E070E080E090E00E942D01EE
:1003700061E08091BA020E94CC008091BA0290E0C4
:10038000FC01E458FF4F2491FC01E255FF4F3491EA
:10039000FC01E656FF4FE491EE23B9F1222339F137
:1003A000233091F038F42130A9F0223001F584B5E2
:1003B0008F7D12C0273091F02830A1F02430B9F49D
:1003C000809180008F7D03C0809180008F77809323
:1003D00080000DC084B58F7784BD09C08091B000C6
:1003E0008F7703C08091B0008F7D8093B000F0E0E4
:1003F000EE0FFF1FEE58FF4FA591B4919FB7F894F1
:100400008C91309538233C939FBF8091BB028551DE
:10041000823028F48BE291E10197F1F706C064E1A4
:1004200070E080E090E00E942D0162E08091BA02CD
:100430000E94CC008091C70290E08230910538F094
:10044000880F991F880F991F05970197F1F7F89466
:1004500080E00E948C006F3F7F4F8F4F9F4F21F4B1
:100460001092C602789441C081E00E948C006F3FD8
:100470007F4F8F4F9F4FA1F38E010F5F1F4F6E0174
:100480008FEBC81A8EEFD80A780180E00E948C00AA
:10049000F701608371838283938381E00E948C00E3
:1004A000F7016483758386839783F8E0EF0EF11C70
:1004B000EC14FD0451F7789420E030E0F801C0809E
:1004C000D180E280F3804481558166817781FFEF9E
:1004D000CF16DF06EF06FF0631F04F3F8FEF5807CC
:1004E0006807780721F41092C60280E031C0F90154
:1004F00083E0F595E7958A95E1F7EB54FD4F808110
:10050000880FC416D506E606F70608F481608083D6
:100510002F5F3F4F085F1F4F2832310579F620913A
:10052000B90230E04091B5028091B60290E0840FAC
:10053000911D4091B702840F911D4091B802840F24
:10054000911D99272817390771F681E08093C6021B
:10055000C05CDE4F0FB6F894DEBF0FBECDBFDF919B
:10056000CF911F910F91FF90EF90DF90CF90089562
:10057000CF92DF92EF92FF920F931F93CF93DF936F
:100580006C017A018B01C0E0D0E0CE15DF0581F06F
:10059000D8016D918D01D601ED91FC910190F08112
:1005A000E02DC6010995892B11F02196EECF7E0131
:1005B000C701DF91CF911F910F91FF90EF90DF90D6
:1005C000CF900895FC01538D448D252F30E0842F6A
:1005D00090E0821B930B541710F0CF96089501976B
:1005E0000895FC01918D828D981761F0828DDF0155
:1005F000A80FB11D5D968C91928D9F5F9F73928F16
:1006000090E008958FEF9FEF0895FC01918D828D0A
:10061000981731F0828DE80FF11D858D90E00895D7
:100620008FEF9FEF0895FC01918D228D892F90E02F
:10063000805C9F4F821B91098F73992708958CE0EE
:1006400092E00E94130321E0892B09F420E0822F1D
:100650000895FC01848DDF01A80FB11DA35ABF4F7F
:100660002C91848D90E001968F739927848FA689B1
:10067000B7892C93A089B1898C91837080648C9305
:10068000938D848D981306C00288F389E02D8081B4
:100690008F7D80830895EF92FF920F931F93CF93E6
:1006A000DF93EC0181E0888F9B8D8C8D981305C0C2
:1006B000E889F989808185FD26C0F62E0B8D10E032
:1006C0000F5F1F4F0F731127E02E8C8DE8120CC0A7
:1006D0000FB607FCFACFE889F989808185FFF5CF4D
:1006E000CE010E942903F1CF8B8DFE01E80FF11D91
:1006F000E35AFF4FF0829FB7F8940B8FEA89FB898A
:10070000808180620AC09FB7F894EE89FF89608378
:10071000E889F98980818370806480839FBF81E04C
:1007200090E0DF91CF911F910F91FF90EF9008958E
:10073000CF93DF93EC01888D8823C9F0EA89FB8988
:10074000808185FD05C0A889B9898C9186FD0FC07F
:100750000FB607FCF5CF808185FFF2CFA889B98954
:100760008C9185FFEDCFCE010E942903E7CFDF9169
:10077000CF91089580E090E0892B29F00E941F031B
:1007800081110C940000089585ED8093BC00809148
:10079000BC0084FDFCCF1092D90108954091B501B1
:1007A000262F30E0240F311D21323105DCF4209159
:1007B000D9012430C9F4FC0180E090E0861758F498
:1007C0003091B5012191DC01AB56BE4FA30FB11D95
:1007D0002C930196F3CF8091B501680F6093B5011A
:1007E00080E0089581E0089582E0089508958FEFF4
:1007F0009FEF08958FEF9FEF08958091940190E00F
:100800009195819591090895CF93DF93CB01EA01EA
:10081000642F0E94CE03CE01DF91CF910895CF9334
:10082000DF931F92CDB7DEB7698361E0CE010196F9
:100830000E94CE0381E090E00F90DF91CF91089568
:10084000089580E090E00895009769F0FC01019020
:100850000020E9F73197AF01481B590BBC018CE030
:1008600092E00C94B80280E090E008952F923F92BD
:100870004F925F926F927F928F929F92AF92BF92B0
:10088000CF92DF92EF92FF920F931F93CF93DF935C
:10089000CDB7DEB7A4970FB6F894DEBF0FBECDBFBD
:1008A0004B015C01F42E9B01AC010E949E0B88233E
:1008B00019F084E291E027C024013501E89477F82B
:1008C0002FEF3FEF4FE75FE7C301B2010E949E0B9E
:1008D00081110DC02FEF3FEF4FE75FE7C301B2017A
:1008E0000E94D40918161CF488E291E00CC02FEF86
:1008F0003FEF4FE75FE4C501B4010E942C0B1816CF
:100900002CF48CE291E00E942404B8C02FEF3FEF5A
:100910004FE75FECC501B4010E94D40987FDF1CF18
:1009200020E030E0A901C501B4010E94D40987FF8D
:100930000BC06DE28CE092E00E944B033C01B7FAE1
:10094000B094B7F8B09402C0612C712C10E060E054
:1009500070E080E09FE3F11641F020E030E040E2FB
:1009600051E40E94D9091F5FF6CFA50194010E94AE
:1009700068094B015C010E944B0A6AA3C72ED82E5E
:10098000E92E19A2262F372F482F592F8E010F5DE0
:100990001F4F0BA31CA39AE0292E312C412C512C64
:1009A000CA01B901A20191010E94A30B605DF80187
:1009B00062938F01211531054105510589F7CF015A
:1009C0000E9424048301080F191FFF2009F455C059
:1009D0006AA17C2D8D2D9E2D0E947A0A9B01AC016F
:1009E000C501B4010E9467094B015C016EE28CE015
:1009F00092E00E944B03080F191F8AE0282E312C29
:100A0000412C512C20E030E040E251E4C501B4011A
:100A10000E94310B4B015C010E944B0A9B0140E09C
:100A200050E019A2CBA0DCA0762E3AA3642EE52ECE
:100A3000CA01B901A20191010E94A30B605DF601F8
:100A400062936F01211531054105510589F7CF01E9
:100A50000E942404080F191F672D7AA1862D9E2D50
:100A60000E947A0A9B01AC01C501B4010E9467098A
:100A70004B015C01FA94F110C5CFC801A4960FB6E2
:100A8000F894DEBF0FBECDBFDF91CF911F910F91C4
:100A9000FF90EF90DF90CF90BF90AF909F908F909E
:100AA0007F906F905F904F903F902F9008950E949D
:100AB000CB0B1F920F920FB60F9211242F933F93DF
:100AC0008F939F93AF93BF938091080290910902F7
:100AD000A0910A02B0910B023091030223E0230F90
:100AE0002D3720F40196A11DB11D05C026E8230F66
:100AF0000296A11DB11D20930302809308029093DA
:100B00000902A0930A02B0930B0280910402909113
:100B10000502A0910602B09107020196A11DB11D28
:100B20008093040290930502A0930602B0930702FB
:100B3000BF91AF919F918F913F912F910F900FBED9
:100B40000F901F9018951F920F920FB60F921124BD
:100B50002F933F934F935F936F937F938F939F93C5
:100B6000AF93BF93EF93FF938CE092E00E94290331
:100B7000FF91EF91BF91AF919F918F917F916F9175
:100B80005F914F913F912F910F900FBE0F901F904B
:100B900018951F920F920FB60F9211242F938F93D7
:100BA0009F93EF93FF93E0911C02F0911D028081CF
:100BB000E0912202F091230282FD12C09081809187
:100BC00025028F5F8F7320912602821751F0E091EA
:100BD0002502F0E0E45FFD4F958F8093250201C070
:100BE0008081FF91EF919F918F912F910F900FBE78
:100BF0000F901F9018951F920F920FB60F9211240D
:100C00002F933F934F935F936F937F938F939F9314
:100C1000AF93BF93EF93FF938091B900887F8036A5
:100C200009F49CC068F5883209F45BC090F4803107
:100C300009F454C038F4882309F4F2C0883009F468
:100C40004DC0F2C0883109F44CC0803209F45DC057
:100C5000EBC0803409F468C048F4803309F455C00F
:100C6000883309F0E1C08093D801D4C0803509F4FD
:100C70004FC0883509F45DC0883409F0D5C0D2C0B2
:100C8000883909F4C3C0A8F4883709F467C038F478
:100C9000883609F463C0803709F460C0C5C088385D
:100CA00009F4B4C0803909F45FC0803809F0BCC0D1
:100CB0005BC0803B09F484C038F4803A09F466C014
:100CC000883A09F47DC0B0C0803C09F4A3C0883CD8
:100CD00009F4A0C0883B09F486C0A6C08091FE013B
:100CE00010C09091FD018091FC01981770F5E09182
:100CF000FD0181E08E0F8093FD01F0E0E452FE4F94
:100D000080818093BB0085EC82C08093D8018AC02B
:100D1000E091FD0181E08E0F8093FD018091BB0089
:100D2000F0E0E452FE4F80839091FD018091FC0140
:100D30006AC0E091FD0181E08E0F8093FD018091FA
:100D4000BB00F0E0E452FE4F80838091DB01811113
:100D500069C081E08093DA0184EA5DC083E080931A
:100D6000D9011092D701CFCF8091D701803208F0FE
:100D70004DC0E091D70181E08E0F8093D701809123
:100D8000BB00F0E0E954FE4F8083BDCF85EC80933B
:100D9000BC001092D9018091D701803230F4E091EB
:100DA000D701F0E0E954FE4F10826091D70170E066
:100DB00087EB91E0E0E0F0E009951092D70134C0B4
:100DC00084E08093D9011092B6011092B501E0E061
:100DD000F0E009958091B501811105C081E0809313
:100DE000B50110929501E091B60181E08E0F8093DC
:100DF000B601F0E0EB56FE4F80818093BB009091EE
:100E0000B6018091B501981708F47DCF85E88093ED
:100E1000BC000AC085EC8093BC001092D90104C0CC
:100E20001092D8010E94C403FF91EF91BF91AF913E
:100E30009F918F917F916F915F914F913F912F91F2
:100E40000F900FBE0F901F901895ECE0F2E0138208
:100E5000128288EE93E0A0E0B0E084839583A683BD
:100E6000B78324E031E03183208325EC30E03587FF
:100E7000248724EC30E03787268720EC30E0318B64
:100E8000208B21EC30E0338B228B22EC30E0358B51
:100E9000248B26EC30E0378B268B118E128E138E2E
:100EA000148EE9EAF2E01382128284839583A6838A
:100EB000B78386E191E091838083A5EBB2E082E085
:100EC00015968C9315978BE016968C931697E0EBFE
:100ED000F0E0E4911796EC931797ECE9F0E0E491D9
:100EE0001896EC93189740E85EE360E070E01D967A
:100EF0004D935D936D937C9350970895789484B54A
:100F0000826084BD84B5816084BD85B5826085BD05
:100F100085B5816085BD80916E00816080936E0093
:100F20001092810080918100826080938100809185
:100F30008100816080938100809180008160809336
:100F400080008091B10084608093B1008091B000F6
:100F500081608093B00080917A00846080937A00F1
:100F600080917A00826080937A0080917A0081601B
:100F700080937A0080917A00806880937A00109242
:100F8000C100E0911C02F0911D0282E08083E0919B
:100F90001802F09119021082E0911A02F0911B02DE
:100FA0008FEC808310922402E0912002F0912102C4
:100FB00086E08083E0911E02F0911F0280818061B3
:100FC0008083E0911E02F0911F02808188608083FF
:100FD000E0911E02F0911F02808180688083E09181
:100FE0001E02F0911F0280818F7D808380E391E05B
:100FF0000E9424048EE391E00E94240462E0809128
:10100000BA020E94CC002FB7F89480910802909108
:101010000902A0910A02B0910B022FBF805D974098
:10102000A109B1098093BE029093BF02A093C002B0
:10103000B093C10287E38093C702D0E4D0937C00D1
:1010400080917A00806480937A0080917A0086FD96
:10105000FCCF609178008091790070E0782B072EAA
:10106000000C880B990B0E947C0A20E030E04CECCD
:1010700052E40E94670920E030E048EC52E40E940C
:10108000310B20E030EC4CE454E40E94D909609329
:10109000FF0170930002809301029093020260EDC1
:1010A00077E080E090E00E942D010E946701882394
:1010B000D1F18091BB028B30B0F18D30A8F0855119
:1010C000823088F56091B5027091B6027627672765
:1010D000762780E090E00E947A0A2DEC3CEC4CEC04
:1010E0005DE30E94310B1CC06091B60270E080E0AD
:1010F00090E00E947C0A2DEC3CEC4CEC5DE30E94FD
:10110000310B6B017C016091B50270E080E090E0F2
:101110000E947C0A9B01AC01C701B6010E946809CC
:101120004B015C0106C0812C912C20ECA22E2FE7F4
:10113000B22E0E946701882309F48AC08091BB0205
:101140008C3009F448C018F48B30D1F06BC0855155
:10115000823008F067C0C091B7026C2F6F7770E0E3
:10116000762F66278091B802682B80E090E00E947D
:101170007A0A2DEC3CEC4CEC5DE30E94310B49C04B
:101180006091B70270E080E090E00E947A0A6B0103
:101190007C01C091B802C7FF0AC09B01AC0160E0AE
:1011A00070E080E89FEB0E9467096B017C016C2F67
:1011B0006F7070E080E090E00E947C0A2DEC3CECC7
:1011C0004CEC5DE30E94310BA70196010E94680977
:1011D0006B017C012DC0C091B7026091B8026F70A5
:1011E00070E080E090E00E947C0A2DEC3CEC4CEC3E
:1011F0005DE30E94310B6B017C016C2F70E080E09D
:1012000090E00E947A0A9B01AC01C701B6010E94DE
:1012100068096B017C01C7FF0BC0F7FAF094F7F87F
:10122000F09406C0C12CD12C80ECE82E8FE7F82E6C
:10123000A5019401C501B4010E949E0B811108C053
:10124000A7019601C701B6010E949E0B882359F0A1
:1012500081E491E00E9424048EE391E00E94240442
:101260000E94BA03EBCE81E691E00E9424046091D3
:10127000FF0170910002809101029091020241E011
:101280000E9436048CE691E00E94240481E791E0FC
:101290000E94240442E0C501B4010E9436048CE798
:1012A00091E00E94240480E891E00E94240442E03E
:1012B000C701B6010E9436048EE891E00E94240422
:1012C0006AEF70E080E090E00E942D01C9CF505895
:1012D000BB27AA270E947F090C94F20A0E94E40A05
:1012E00038F00E94EB0A20F039F49F3F19F426F4FD
:1012F0000C94E10A0EF4E095E7FB0C94DB0AE92F6D
:101300000E94030B58F3BA17620773078407950707
:1013100020F079F4A6F50C94250B0EF4E0950B2E35
:10132000BA2FA02D0B01B90190010C01CA01A00137
:101330001124FF27591B99F0593F50F4503E68F192
:101340001A16F040A22F232F342F4427585FF3CFD3
:10135000469537952795A795F0405395C9F77EF4A4
:101360001F16BA0B620B730B840BBAF09150A1F0ED
:10137000FF0FBB1F661F771F881FC2F70EC0BA0F73
:10138000621F731F841F48F4879577956795B795FB
:10139000F7959E3F08F0B0CF9395880F08F09927F6
:1013A000EE0F9795879508950E94B70A08F481E09B
:1013B00008950E94ED090C94F20A0E94EB0A58F07D
:1013C0000E94E40A40F029F45F3F29F00C94DB0A04
:1013D00051110C94260B0C94E10A0E94030B68F344
:1013E0009923B1F3552391F3951B550BBB27AA27DE
:1013F00062177307840738F09F5F5F4F220F331F18
:10140000441FAA1FA9F335D00E2E3AF0E0E832D0DF
:1014100091505040E695001CCAF72BD0FE2F29D0E2
:10142000660F771F881FBB1F261737074807AB07B4
:10143000B0E809F0BB0B802DBF01FF2793585F4F29
:101440003AF09E3F510578F00C94DB0A0C94260B81
:101450005F3FE4F3983ED4F3869577956795B7950B
:10146000F7959F5FC9F7880F911D9695879597F916
:101470000895E1E0660F771F881FBB1F621773078F
:101480008407BA0720F0621B730B840BBA0BEE1FA4
:1014900088F7E09508950E940B0B88F09F5798F00D
:1014A000B92F9927B751B0F0E1F0660F771F881F69
:1014B000991F1AF0BA95C9F714C0B13091F00E9483
:1014C000250BB1E008950C94250B672F782F882702
:1014D000B85F39F0B93FCCF3869577956795B395AA
:1014E000D9F73EF490958095709561957F4F8F4F19
:1014F0009F4F0895E89409C097FB3EF4909580951E
:10150000709561957F4F8F4F9F4F9923A9F0F92FC9
:1015100096E9BB279395F695879577956795B79547
:10152000F111F8CFFAF4BB0F11F460FF1BC06F5F2D
:101530007F4F8F4F9F4F16C0882311F096E911C03F
:10154000772321F09EE8872F762F05C0662371F060
:1015500096E8862F70E060E02AF09A95660F771F74
:10156000881FDAF7880F9695879597F90895990F50
:101570000008550FAA0BE0E8FEEF16161706E8075D
:10158000F907C0F012161306E407F50798F0621B7E
:10159000730B840B950B39F40A2661F0232B242B53
:1015A000252B21F408950A2609F4A140A6958FEF72
:1015B000811D811D089597F99F6780E870E060E0C4
:1015C00008959FEF80EC089500240A9416161706DC
:1015D00018060906089500240A9412161306140624
:1015E00005060895092E0394000C11F4882352F087
:1015F000BB0F40F4BF2B11F460FF04C06F5F7F4F3F
:101600008F4F9F4F089557FD9058440F551F59F025
:101610005F3F71F04795880F97FB991F61F09F3FDF
:1016200079F087950895121613061406551FF2CF08
:101630004695F1DF08C0161617061806991FF1CF58
:1016400086957105610508940895E894BB2766277F
:101650007727CB0197F908950E94B70A08F48FEF16
:1016600008950E94440B0C94F20A0E94E40A38F098
:101670000E94EB0A20F0952311F00C94DB0A0C94E5
:10168000E10A11240C94260B0E94030B70F3959F22
:10169000C1F3950F50E0551F629FF001729FBB2769
:1016A000F00DB11D639FAA27F00DB11DAA1F649F05
:1016B0006627B00DA11D661F829F2227B00DA11DB8
:1016C000621F739FB00DA11D621F839FA00D611D3E
:1016D000221F749F3327A00D611D231F849F600D5F
:1016E000211D822F762F6A2F11249F5750409AF088
:1016F000F1F088234AF0EE0FFF1FBB1F661F771F14
:10170000881F91505040A9F79E3F510580F00C94DE
:10171000DB0A0C94260B5F3FE4F3983ED4F38695E6
:1017200077956795B795F795E7959F5FC1F7FE2B7E
:10173000880F911D9695879597F908950E94B70A8D
:10174000880B990B0895A1E21A2EAA1BBB1BFD0161
:101750000DC0AA1FBB1FEE1FFF1FA217B307E40790
:10176000F50720F0A21BB30BE40BF50B661F771FE8
:10177000881F991F1A9469F76095709580959095C8
:101780009B01AC01BD01CF010895EE0FFF1F059035
:10179000F491E02D099481E090E0F8940C94D00B42
:0417A000F894FFCFEB
:1017A400000000004B03B802E20298031303F102A5
:1017B4000503000000000F0404042104F603FD03E4
:1017C400FA03F7036E616E00696E66006F76660059
:1017D400312C20322074657374696E6721000D0A00
:1017E400004661696C656420746F207265616420D1
:1017F40066726F6D204448542073656E736F722156
:101804000050726573737572653A20007073690ACB
:101814000048756D69646974793A200020250A00CE
:1018240054656D70657261747572653A2000202A82
:04183400430A200043
:107E0000112484B714BE81FFF0D085E080938100F7
:107E100082E08093C00088E18093C10086E0809377
:107E2000C20080E18093C4008EE0C9D0259A86E02C
:107E300020E33CEF91E0309385002093840096BBD3
:107E4000B09BFECF1D9AA8958150A9F7CC24DD24C4
:107E500088248394B5E0AB2EA1E19A2EF3E0BF2EE7
:107E6000A2D0813461F49FD0082FAFD0023811F036
:107E7000013811F484E001C083E08DD089C08234E0
:107E800011F484E103C0853419F485E0A6D080C0E4
:107E9000853579F488D0E82EFF2485D0082F10E0AE
:107EA000102F00270E291F29000F111F8ED06801E7
:107EB0006FC0863521F484E090D080E0DECF843638
:107EC00009F040C070D06FD0082F6DD080E0C81688
:107ED00080E7D80618F4F601B7BEE895C0E0D1E017
:107EE00062D089930C17E1F7F0E0CF16F0E7DF06D8
:107EF00018F0F601B7BEE89568D007B600FCFDCFD4
:107F0000A601A0E0B1E02C9130E011968C91119780
:107F100090E0982F8827822B932B1296FA010C0160
:107F200087BEE89511244E5F5F4FF1E0A038BF0790
:107F300051F7F601A7BEE89507B600FCFDCF97BE46
:107F4000E89526C08437B1F42ED02DD0F82E2BD052
:107F50003CD0F601EF2C8F010F5F1F4F84911BD097
:107F6000EA94F801C1F70894C11CD11CFA94CF0C13
:107F7000D11C0EC0853739F428D08EE10CD085E9AC
:107F80000AD08FE07ACF813511F488E018D01DD067
:107F900080E101D065CF982F8091C00085FFFCCF94
:107FA0009093C60008958091C00087FFFCCF809118
:107FB000C00084FD01C0A8958091C6000895E0E648
:107FC000F0E098E1908380830895EDDF803219F02E
:107FD00088E0F5DFFFCF84E1DECF1F93182FE3DFCA
:107FE0001150E9F7F2DF1F91089580E0E8DFEE27F6
:047FF000FF270994CA
:027FFE00040479
:0400000300007E007B
:00000001FF
