:100000000C9462000C948A000C948A000C948A0070
:100010000C948A000C948A000C948A000C948A0038
:100020000C948A000C948A000C948A000C948A0028
:100030000C948A000C948A000C948A000C948A0018
:100040000C9495050C948A000C9405060C94DF051D
:100050000C948A000C948A000C948A000C948A00F8
:100060000C948A000C948A000000000024002700F1
:100070002A0000000000250028002B0000000008D6
:10008000000201000003040700000000000000005F
:1000900000000000230026002900040404040404D6
:1000A0000404020202020202030303030303010227
:1000B00004081020408001020408102001020408F6
:1000C0001020370611241FBECFEFD8E0DEBFCDBF12
:1000D00011E0A0E0B1E0E2EDF8E102C005900D9280
:1000E000A638B107D9F722E0A6E8B1E001C01D9219
:1000F000AF33B207E1F710E0C2E6D0E004C02197C9
:10010000FE010E945C0CC136D107C9F70E9484062B
:100110000C94670C0C940000CF92DF92EF92FF9248
:10012000CF93DF93C82F809132028C3009F446C000
:1001300018F48B30D1F06FC08551823008F06BC05D
:10014000D0912E026D2F6F7770E0762F6627809109
:100150002F02682B80E090E00E94B60A2DEC3CEC68
:100160004CEC5DE30E946D0B45C060912E0270E087
:1001700080E090E00E94B60A6B017C01D0912F02D2
:10018000D7FF0AC09B01AC0160E070E080E89FEB04
:100190000E94A3096B017C016D2F6F7070E080E0FD
:1001A00090E00E94B80A2DEC3CEC4CEC5DE30E9420
:1001B0006D0BA70196010E94A4091EC0D0912E02CA
:1001C0006D2F70E080E090E00E94B60A6B017C0128
:1001D00060912F026F7070E080E090E00E94B80A9A
:1001E0002DEC3CEC4CEC5DE30E946D0BA7019601FD
:1001F0000E94A409D7FD9058CC2389F026E636E664
:1002000046EE5FE30E946D0B20E030E040E052E4F8
:100210000E94A40904C060E070E080EC9FE7DF91D9
:10022000CF91FF90EF90DF90CF900895CF92DF9223
:10023000EF92FF92CF93DF93B0913302882311F0B6
:10024000AB2F01C0A0E08091340290E0880F991F8D
:1002500080579F4FC0903902D0903A02E0903B0205
:10026000F0903C0220E030E0FC01C591D491E8819F
:10027000EB23A90160E070E0EA130CC02F5F3F4F51
:100280004C155D056E057F0578F33FEF2FEF8FEF7F
:100290009FEF03C0322F252FCB01632F722FDF91E9
:1002A000CF91FF90EF90DF90CF900895CF93DF93A1
:1002B00090E0FC01E255FF4F2491FC01E656FF4F10
:1002C0008491882361F190E0880F991FFC01E8591F
:1002D000FF4FC591D491FC01EE58FF4FA591B49109
:1002E000611109C09FB7F894888120958223888383
:1002F000EC912E230BC0623061F49FB7F894888193
:10030000322F309583238883EC912E2B2C939FBF23
:1003100006C08FB7F894E8812E2B28838FBFDF911A
:10032000CF9108953FB7F89480918701909188010B
:10033000A0918901B0918A0126B5A89B05C02F3FE5
:1003400019F00196A11DB11D3FBFBA2FA92F982FFB
:100350008827820F911DA11DB11DBC01CD0142E076
:10036000660F771F881F991F4A95D1F708958F92BE
:100370009F92AF92BF92CF92DF92EF92FF926B016A
:100380007C010E9492014B015C01C114D104E10483
:10039000F104F1F00E949201DC01CB018819990966
:1003A000AA09BB09883E9340A105B10570F321E07D
:1003B000C21AD108E108F10888EE880E83E0981E81
:1003C000A11CB11CC114D104E104F10419F7DDCF63
:1003D000FF90EF90DF90CF90BF90AF909F908F9065
:1003E0000895CF92DF92EF92FF920F931F93CF93D6
:1003F000DF93CDB7DEB7C054D1400FB6F894DEBF5F
:100400000FBECDBF2FB7F89480918B0190918C01D6
:10041000A0918D01B0918E012FBF40913502509176
:10042000360260913702709138028C019D01041BE5
:10043000150B260B370BB901A801403D574061054C
:10044000710518F480913D020DC18093350290939F
:100450003602A0933702B093380210923002109205
:100460002F0210922E0210922D0210922C0262E0A6
:10047000809131020E94560161E070E080E090E0DE
:100480000E94B70161E0809131020E945601809183
:10049000310290E0FC01E458FF4F2491FC01E25549
:1004A000FF4F3491FC01E656FF4FE491EE23B9F182
:1004B000222339F1233091F038F42130A9F0223091
:1004C00001F584B58F7D12C0273091F02830A1F05E
:1004D0002430B9F4809180008F7D03C0809180002A
:1004E0008F77809380000DC084B58F7784BD09C05D
:1004F0008091B0008F7703C08091B0008F7D809392
:10050000B000F0E0EE0FFF1FEE58FF4FA591B49141
:100510009FB7F8948C91309538233C939FBF80917E
:1005200032028551823028F48BE291E10197F1F794
:1005300006C064E170E080E090E00E94B70162E0F4
:10054000809131020E94560180913E0290E08230FB
:10055000910538F0880F991F880F991F059701970B
:10056000F1F7F89480E00E9416016F3F7F4F8F4FA4
:100570009F4F21F410923D02789441C081E00E9487
:1005800016016F3F7F4F8F4F9F4FA1F38E010F5F7B
:100590001F4F6E018FEBC81A8EEFD80A780180E0EA
:1005A0000E941601F701608371838283938381E047
:1005B0000E941601F7016483758386839783F8E0B0
:1005C000EF0EF11CEC14FD0451F7789420E030E0BC
:1005D000F801C080D180E280F3804481558166813A
:1005E0007781FFEFCF16DF06EF06FF0631F04F3FB2
:1005F0008FEF58076807780721F410923D0280E0DA
:1006000031C0F90183E0F595E7958A95E1F7E45D5E
:10061000FD4F8081880FC416D506E606F70608F45C
:10062000816080832F5F3F4F085F1F4F2832310565
:1006300079F62091300230E040912C0280912D0219
:1006400090E0840F911D40912E02840F911D4091E6
:100650002F02840F911D99272817390771F681E021
:1006600080933D02C05CDE4F0FB6F894DEBF0FBE34
:10067000CDBFDF91CF911F910F91FF90EF90DF9051
:10068000CF900895CF92DF92EF92FF920F931F9336
:10069000CF93DF936C017A018B01C0E0D0E0CE15DF
:1006A000DF0581F0D8016D918D01D601ED91FC91AE
:1006B0000190F081E02DC6010995892B11F021965A
:1006C000EECF7E01C701DF91CF911F910F91FF9077
:1006D000EF90DF90CF900895089580E090E0089526
:1006E000FC01538D448D252F30E0842F90E0821B38
:1006F000930B541710F0CF96089501970895FC01BD
:10070000918D828D981761F0828DDF01A80FB11D48
:100710005D968C91928D9F5F9F73928F90E008956C
:100720008FEF9FEF0895FC01918D828D981731F026
:10073000828DE80FF11D858D90E008958FEF9FEF7A
:100740000895FC01918D228D892F90E0805C9F4F50
:10075000821B91098F73992708958FE891E00E9479
:10076000A10321E0892B09F420E0822F0895FC01E8
:10077000848DDF01A80FB11DA35ABF4F2C91848D2A
:1007800090E001968F739927848FA689B7892C935F
:10079000A089B1898C91837080648C93938D848DB2
:1007A000981306C00288F389E02D80818F7D8083B5
:1007B0000895EF92FF920F931F93CF93DF93EC0175
:1007C00081E0888F9B8D8C8D981305C0E889F9890D
:1007D000808185FD26C0F62E0B8D10E00F5F1F4F28
:1007E0000F731127E02E8C8DE8120CC00FB607FC9A
:1007F000FACFE889F989808185FFF5CFCE010E9483
:10080000B703F1CF8B8DFE01E80FF11DE35AFF4FC7
:10081000F0829FB7F8940B8FEA89FB898081806210
:100820000AC09FB7F894EE89FF896083E889F98947
:1008300080818370806480839FBF81E090E0DF913E
:10084000CF911F910F91FF90EF900895CF93DF9379
:10085000EC01888D8823C9F0EA89FB89808185FDB8
:1008600005C0A889B9898C9186FD0FC00FB607FC19
:10087000F5CF808185FFF2CFA889B9898C9185FF5A
:10088000EDCFCE010E94B703E7CFDF91CF9108955E
:1008900080E090E0892B29F00E94AD0381110C9437
:1008A00000000895009769F0FC0101900020E9F72D
:1008B0003197AF01481B590BBC018FE891E00C94B4
:1008C000420380E090E00895CF93DF930E945204AA
:1008D000EC0182E191E00E9452048C0F9D1FDF9198
:1008E000CF9108952F923F924F925F926F927F9295
:1008F0008F929F92AF92BF92CF92DF92EF92FF9230
:100900000F931F93CF93DF93CDB7DEB7A4970FB6A6
:10091000F894DEBF0FBECDBF4B015C01F42E9B01EE
:10092000AC010E94200C882319F085E191E027C0DA
:1009300024013501E89477F82FEF3FEF4FE75FE7A9
:10094000C301B2010E94200C81110DC02FEF3FEFB7
:100950004FE75FE7C301B2010E94100A18161CF4AA
:1009600089E191E00CC02FEF3FEF4FE75FE4C50155
:10097000B4010E94680B18162CF48DE191E00E94DE
:100980005204B8C02FEF3FEF4FE75FECC501B40151
:100990000E94100A87FDF1CF20E030E0A901C501D7
:1009A000B4010E94100A87FF0BC06DE28FE891E04E
:1009B0000E94D9033C01B7FAB094B7F8B09402C0D2
:1009C000612C712C10E060E070E080E09FE3F11694
:1009D00041F020E030E040E251E40E94150A1F5F40
:1009E000F6CFA50194010E94A4094B015C010E946D
:1009F000870A6AA3C72ED82EE92E19A2262F372FD1
:100A0000482F592F8E010F5D1F4F0BA31CA39AE097
:100A1000292E312C412C512CCA01B901A20191017E
:100A20000E943A0C605DF80162938F012115310537
:100A30004105510589F7CF010E9452048301080F37
:100A4000191FFF2009F455C06AA17C2D8D2D9E2D04
:100A50000E94B60A9B01AC01C501B4010E94A30922
:100A60004B015C016EE28FE891E00E94D903080F10
:100A7000191F8AE0282E312C412C512C20E030E027
:100A800040E251E4C501B4010E946D0B4B015C01D1
:100A90000E94870A9B0140E050E019A2CBA0DCA095
:100AA000762E3AA3642EE52ECA01B901A201910166
:100AB0000E943A0C605DF60162936F0121153105C9
:100AC0004105510589F7CF010E945204080F191FF3
:100AD000672D7AA1862D9E2D0E94B60A9B01AC013E
:100AE000C501B4010E94A3094B015C01FA94F11005
:100AF000C5CFC801A4960FB6F894DEBF0FBECDBF18
:100B0000DF91CF911F910F91FF90EF90DF90CF90E9
:100B1000BF90AF909F908F907F906F905F904F901D
:100B20003F902F9008950E94620C1F920F920FB673
:100B30000F9211242F933F938F939F93AF93BF9363
:100B400080918B0190918C01A0918D01B0918E01CB
:100B50003091860123E0230F2D3720F40196A11D4B
:100B6000B11D05C026E8230F0296A11DB11D2093DB
:100B7000860180938B0190938C01A0938D01B0939B
:100B80008E018091870190918801A0918901B09197
:100B90008A010196A11DB11D809387019093880160
:100BA000A0938901B0938A01BF91AF919F918F91DA
:100BB0003F912F910F900FBE0F901F9018951F928D
:100BC0000F920FB60F9211242F933F934F935F9381
:100BD0006F937F938F939F93AF93BF93EF93FF9305
:100BE0008FE891E00E94B703FF91EF91BF91AF9121
:100BF0009F918F917F916F915F914F913F912F9135
:100C00000F900FBE0F901F9018951F920F920FB666
:100C10000F9211242F938F939F93EF93FF93E09163
:100C20009F01F091A0018081E091A501F091A601C2
:100C300082FD12C090818091A8018F5F8F732091F7
:100C4000A901821751F0E091A801F0E0E157FE4FB1
:100C5000958F8093A80101C08081FF91EF919F91B2
:100C60008F912F910F900FBE0F901F901895EFE866
:100C7000F1E01382128288EE93E0A0E0B0E084837A
:100C80009583A683B78384E091E09183808385EC8C
:100C900090E09587848784EC90E09787868780EC46
:100CA00090E0918B808B81EC90E0938B828B82EC37
:100CB00090E0958B848B86EC90E0978B868B118EE1
:100CC000128E138E148EACE2B2E082E015968C93F5
:100CD00015978BE016968C931697E0EBF0E0E49175
:100CE0001796EC931797ECE9F0E0E4911896EC93E3
:100CF000189740E85EE360E070E01D964D935D93C9
:100D00006D937C9350970895CF93DF93CDB7DEB763
:100D10002C970FB6F894DEBF0FBECDBF789484B584
:100D2000826084BD84B5816084BD85B5826085BDE7
:100D300085B5816085BD80916E00816080936E0075
:100D40001092810080918100826080938100809167
:100D50008100816080938100809180008160809318
:100D600080008091B10084608093B1008091B000D8
:100D700081608093B00080917A00846080937A00D3
:100D800080917A00826080937A0080917A008160FD
:100D900080937A0080917A00806880937A00109224
:100DA000C100E0919F01F091A00182E08083E09179
:100DB0009B01F0919C011082E0919D01F0919E01B8
:100DC0008FEC80831092A701E091A301F091A40120
:100DD00086E08083E091A101F091A2018081806191
:100DE0008083E091A101F091A201808188608083DD
:100DF000E091A101F091A201808180688083E0915F
:100E0000A101F091A20180818F7D808381E291E038
:100E10000E94640462E0809131020E9456012FB763
:100E2000F89480918B0190918C01A0918D01B091EB
:100E30008E012FBF805D9740A109B10980933502D3
:100E400090933602A0933702B093380287E38093E1
:100E50003E0260ED77E080E090E00E94B7010E94E2
:100E6000F1018823D1F1809132028B30B0F18D30C5
:100E7000A8F08551823088F560912C0270912D0286
:100E800076276727762780E090E00E94B60A2DEC4F
:100E90003CEC4CEC5DE30E946D0B1CC060912D029C
:100EA00070E080E090E00E94B80A2DEC3CEC4CEC45
:100EB0005DE30E946D0B6B017C0160912C0270E080
:100EC00080E090E00E94B80A9B01AC01C701B60126
:100ED0000E94A4094B015C0106C0812C912C90EC6E
:100EE000A92E9FE7B92E0E94F101882341F080E0EE
:100EF0000E948C0069877A878B879C8708C080E076
:100F000090E0A0ECBFE789879A87AB87BC870E94F7
:100F1000F101882331F081E00E948C002B013C011B
:100F200006C0412C512C80EC682E8FE7782EA5014D
:100F30009401C501B4010E94200C811112C02985C1
:100F40003A854B855C85CA01B9010E94200C81114C
:100F500008C0A3019201C301B2010E94200C8823A2
:100F600039F085E691E00E9464040E94480471CF44
:100F700020E030E048E852E4C301B2010E94A30936
:100F80002AE939E949E95FE30E946D0B6B017C01B5
:100F900020E030E044E752E4C301B2010E94A4091A
:100FA0009B01AC01C701B6010E94A4096B017C0141
:100FB00022E133E840EC5DE3C501B4010E946D0B12
:100FC0009B01AC01C701B6010E94A40920E030E0FA
:100FD00040E05FE30E946D0B6B017C0120E030E09C
:100FE0004EE952E40E94680B18160CF06FC1A30181
:100FF0009201C301B2010E946D0B69837A838B83D6
:101000009C83A5019401C501B4010E946D0B6D8301
:101010007E838F83988721E133E243E050E4C3016C
:10102000B2010E946D0B29E134E849E252E40E94CA
:10103000A3096B017C0126E13BE442E251E4C501D6
:10104000B4010E946D0B9B01AC01C701B6010E9467
:10105000A4096B017C0128E436E246E65EEBC3019D
:10106000B2010E946D0BA50194010E946D0B9B01C2
:10107000AC01C701B6010E94A4096B017C0120EEFE
:101080003FE040EE5BEB69817A818B819C810E941D
:101090006D0B9B01AC01C701B6010E94A4096B0155
:1010A0007C0128EF37E840E65DEB6D817E818F8122
:1010B00098850E946D0B9B01AC01C701B6010E948F
:1010C000A4096B017C012CEA3DE041EA5AE3698105
:1010D0007A818B819C810E946D0BA50194010E94F5
:1010E0006D0B9B01AC01C701B6010E94A4096B0105
:1010F0007C0128EC3FE84FE55AE3C301B2010E94AE
:101100006D0B2D813E814F8158850E946D0B9B0197
:10111000AC01C701B6010E94A4096B017C0121EF5B
:101120003BE845E056EB69817A818B819C810E9486
:101130006D0B2D813E814F8158850E946D0B9B0167
:10114000AC01C701B6010E94A4096B017C0120E03B
:1011500030E040E551E4C501B4010E94100A87FF68
:1011600066C020E030E040EA52E4C301B2010E94D0
:10117000680B87FD5CC020E030E040EE52E4C30124
:10118000B2010E94100A18160CF4D1C0A5019401F6
:1011900060E070E080E591E40E94A30920E030E087
:1011A00040E85EE30E946D0B6D837E838F8398879A
:1011B00020E030E04EEB52E4C301B2010E94A309EB
:1011C00069837A838B839C8320E030E0A9010E94AD
:1011D000680B18165CF429813A814B815C8160E0D0
:1011E00070E088E891E40E94A3090AC020E030E0A2
:1011F00048E851E469817A818B819C810E94A4092D
:101200002EE33DEE40E75DE30E946D0B0E94E00B94
:101210009B01AC016D817E818F8198850E946D0B51
:101220009B01AC01C701B6010E94A3094DC020E09B
:1012300030E04AEA52E4C501B4010E94680B181676
:101240000CF044C020E030E040EA52E4C301B201B7
:101250000E94680B87FD3AC020E030E04EEA52E47D
:10126000C301B2010E94100A181684F120E030E098
:101270004AEA52E4C501B4010E94A3092DEC3CECFA
:101280004CEC5DE30E946D0B69837A838B839C83B6
:10129000A301920160E070E08EEA92E40E94A3094B
:1012A0002DEC3CEC4CE45EE30E946D0B9B01AC0129
:1012B00069817A818B819C810E946D0B9B01AC01BD
:1012C000C701B6010E94A4096B017C018DE291E087
:1012D0000E94520442E0C501B4010E94720488E3F6
:1012E00091E00E9452048CE391E00E94520442E09B
:1012F00069857A858B859C850E9472048AE491E0D9
:101300000E94520442E0C301B2010E9472048FE4C1
:1013100091E00E94520484E591E00E94520442E070
:10132000C701B6010E94720481E691E01CCE20E064
:1013300030E04AEA52E4C501B4010E94680B181675
:101340000CF48ACFC3CF5058BB27AA270E94BB09F1
:101350000C942E0B0E94200B38F00E94270B20F0DB
:1013600039F49F3F19F426F40C941D0B0EF4E0950C
:10137000E7FB0C94170BE92F0E943F0B58F3BA17A9
:10138000620773078407950720F079F4A6F50C949B
:10139000610B0EF4E0950B2EBA2FA02D0B01B901B5
:1013A00090010C01CA01A0011124FF27591B99F0DB
:1013B000593F50F4503E68F11A16F040A22F232FE7
:1013C000342F4427585FF3CF469537952795A79537
:1013D000F0405395C9F77EF41F16BA0B620B730BDE
:1013E000840BBAF09150A1F0FF0FBB1F661F771F4F
:1013F000881FC2F70EC0BA0F621F731F841F48F404
:10140000879577956795B795F7959E3F08F0B0CF8C
:101410009395880F08F09927EE0F97958795089573
:101420000E94F30A08F481E008950E94290A0C94AE
:101430002E0B0E94270B58F00E94200B40F029F43D
:101440005F3F29F00C94170B51110C94620B0C9414
:101450001D0B0E943F0B68F39923B1F3552391F3C1
:10146000951B550BBB27AA2762177307840738F013
:101470009F5F5F4F220F331F441FAA1FA9F335D070
:101480000E2E3AF0E0E832D091505040E695001C24
:10149000CAF72BD0FE2F29D0660F771F881FBB1FDE
:1014A000261737074807AB07B0E809F0BB0B802DBC
:1014B000BF01FF2793585F4F3AF09E3F510578F0E8
:1014C0000C94170B0C94620B5F3FE4F3983ED4F33B
:1014D000869577956795B795F7959F5FC9F7880FBC
:1014E000911D9695879597F90895E1E0660F771F0E
:1014F000881FBB1F621773078407BA0720F0621B9F
:10150000730B840BBA0BEE1F88F7E09508950E94C9
:10151000470B88F09F5798F0B92F9927B751B0F033
:10152000E1F0660F771F881F991F1AF0BA95C9F767
:1015300014C0B13091F00E94610BB1E008950C9499
:10154000610B672F782F8827B85F39F0B93FCCF34C
:10155000869577956795B395D9F73EF490958095E4
:10156000709561957F4F8F4F9F4F0895E89409C004
:1015700097FB3EF490958095709561957F4F8F4FC6
:101580009F4F9923A9F0F92F96E9BB279395F695DC
:10159000879577956795B795F111F8CFFAF4BB0F5A
:1015A00011F460FF1BC06F5F7F4F8F4F9F4F16C0BE
:1015B000882311F096E911C0772321F09EE8872F48
:1015C000762F05C0662371F096E8862F70E060E004
:1015D0002AF09A95660F771F881FDAF7880F96957D
:1015E000879597F90895990F0008550FAA0BE0E821
:1015F000FEEF16161706E807F907C0F012161306D5
:10160000E407F50798F0621B730B840B950B39F414
:101610000A2661F0232B242B252B21F408950A267A
:1016200009F4A140A6958FEF811D811D089597F9BA
:101630009F6780E870E060E008959FEF80EC089578
:1016400000240A94161617061806090608950024A1
:101650000A9412161306140605060895092E03941B
:10166000000C11F4882352F0BB0F40F4BF2B11F48F
:1016700060FF04C06F5F7F4F8F4F9F4F089557FDEE
:101680009058440F551F59F05F3F71F04795880FF0
:1016900097FB991F61F09F3F79F087950895121687
:1016A00013061406551FF2CF4695F1DF08C0161633
:1016B00017061806991FF1CF8695710561050894E4
:1016C0000895E894BB2766277727CB0197F90895FB
:1016D0000E94F30A08F48FEF08950E94800B0C9487
:1016E0002E0B0E94200B38F00E94270B20F0952330
:1016F00011F00C94170B0C941D0B11240C94620B1D
:101700000E943F0B70F3959FC1F3950F50E0551F5A
:10171000629FF001729FBB27F00DB11D639FAA2746
:10172000F00DB11DAA1F649F6627B00DA11D661F95
:10173000829F2227B00DA11D621F739FB00DA11DB6
:10174000621F839FA00D611D221F749F3327A00D70
:10175000611D231F849F600D211D822F762F6A2F0C
:1017600011249F5750409AF0F1F088234AF0EE0F71
:10177000FF1FBB1F661F771F881F91505040A9F79E
:101780009E3F510580F00C94170B0C94620B5F3F49
:10179000E4F3983ED4F3869577956795B795F795DA
:1017A000E7959F5FC1F7FE2B880F911D9695879552
:1017B00097F9089519F416F40C941D0B0C94250C4C
:1017C0000E94470BB8F39923C9F3B6F39F57550B03
:1017D00087FF0E94330C0024A0E640EA9001805865
:1017E0005695979528F4805C660F771F881F20F028
:1017F00026173707480730F4621B730B840B202928
:1018000031294A2BA69517940794202531254A277C
:1018100058F7660F771F881F20F0261737074807ED
:1018200030F4620B730B840B200D311D411DA0950C
:1018300081F7B901842F9158880F9695879508955F
:101840000E94F30A880B990B08959F3F31F0915045
:1018500020F4879577956795B795880F911D969594
:10186000879597F9089591505040660F771F881F0C
:10187000D2F70895A1E21A2EAA1BBB1BFD010DC0D1
:10188000AA1FBB1FEE1FFF1FA217B307E407F50730
:1018900020F0A21BB30BE40BF50B661F771F881F0C
:1018A000991F1A9469F760957095809590959B01A2
:1018B000AC01BD01CF010895EE0FFF1F0590F4911B
:1018C000E02D099481E090E0F8940C94670CF89472
:0218D000FFCF48
:1018D20000000000D903420370032604A1037F0322
:1018E20093030D0A006E616E00696E66006F766684
:1018F2000044485431312074657374210048756D79
:1019020069646974793A20002025090054656D7074
:10191200657261747572653A2000202A43200020A6
:101922002A4609004865617420696E6465783A2028
:1019320000202A46004661696C656420746F20723B
:101942006561642066726F6D204448542073656E31
:06195200736F722100001A
:107E0000112484B714BE81FFF0D085E080938100F7
:107E100082E08093C00088E18093C10086E0809377
:107E2000C20080E18093C4008EE0C9D0259A86E02C
:107E300020E33CEF91E0309385002093840096BBD3
:107E4000B09BFECF1D9AA8958150A9F7CC24DD24C4
:107E500088248394B5E0AB2EA1E19A2EF3E0BF2EE7
:107E6000A2D0813461F49FD0082FAFD0023811F036
:107E7000013811F484E001C083E08DD089C08234E0
:107E800011F484E103C0853419F485E0A6D080C0E4
:107E9000853579F488D0E82EFF2485D0082F10E0AE
:107EA000102F00270E291F29000F111F8ED06801E7
:107EB0006FC0863521F484E090D080E0DECF843638
:107EC00009F040C070D06FD0082F6DD080E0C81688
:107ED00080E7D80618F4F601B7BEE895C0E0D1E017
:107EE00062D089930C17E1F7F0E0CF16F0E7DF06D8
:107EF00018F0F601B7BEE89568D007B600FCFDCFD4
:107F0000A601A0E0B1E02C9130E011968C91119780
:107F100090E0982F8827822B932B1296FA010C0160
:107F200087BEE89511244E5F5F4FF1E0A038BF0790
:107F300051F7F601A7BEE89507B600FCFDCF97BE46
:107F4000E89526C08437B1F42ED02DD0F82E2BD052
:107F50003CD0F601EF2C8F010F5F1F4F84911BD097
:107F6000EA94F801C1F70894C11CD11CFA94CF0C13
:107F7000D11C0EC0853739F428D08EE10CD085E9AC
:107F80000AD08FE07ACF813511F488E018D01DD067
:107F900080E101D065CF982F8091C00085FFFCCF94
:107FA0009093C60008958091C00087FFFCCF809118
:107FB000C00084FD01C0A8958091C6000895E0E648
:107FC000F0E098E1908380830895EDDF803219F02E
:107FD00088E0F5DFFFCF84E1DECF1F93182FE3DFCA
:107FE0001150E9F7F2DF1F91089580E0E8DFEE27F6
:047FF000FF270994CA
:027FFE00040479
:0400000300007E007B
:00000001FF
